{
  "_format": "hh-sol-artifact-1",
  "contractName": "CitizenScienceRewards",
  "sourceName": "contracts/CitizenScienceRewards.sol",
  "abi": [
    {
      "anonymous": false,
      "inputs": [
        {
          "indexed": true,
          "internalType": "uint256",
          "name": "id",
          "type": "uint256"
        },
        {
          "indexed": false,
          "internalType": "uint256",
          "name": "projectId",
          "type": "uint256"
        },
        {
          "indexed": true,
          "internalType": "address",
          "name": "contributor",
          "type": "address"
        },
        {
          "indexed": false,
          "internalType": "uint256",
          "name": "amount",
          "type": "uint256"
        }
      ],
      "name": "ContributionAdded",
      "type": "event"
    },
    {
      "anonymous": false,
      "inputs": [
        {
          "indexed": true,
          "internalType": "uint256",
          "name": "id",
          "type": "uint256"
        },
        {
          "indexed": true,
          "internalType": "address",
          "name": "contributor",
          "type": "address"
        }
      ],
      "name": "ContributorAdded",
      "type": "event"
    },
    {
      "anonymous": false,
      "inputs": [
        {
          "indexed": false,
          "internalType": "uint256",
          "name": "projectId",
          "type": "uint256"
        },
        {
          "indexed": true,
          "internalType": "address",
          "name": "buyer",
          "type": "address"
        },
        {
          "indexed": false,
          "internalType": "uint256",
          "name": "earnings",
          "type": "uint256"
        }
      ],
      "name": "DatasetPurchased",
      "type": "event"
    },
    {
      "anonymous": false,
      "inputs": [
        {
          "indexed": true,
          "internalType": "uint256",
          "name": "id",
          "type": "uint256"
        },
        {
          "indexed": true,
          "internalType": "address",
          "name": "creator",
          "type": "address"
        },
        {
          "indexed": false,
          "internalType": "string",
          "name": "projectData",
          "type": "string"
        }
      ],
      "name": "ProjectCreated",
      "type": "event"
    },
    {
      "inputs": [
        {
          "internalType": "uint256",
          "name": "_projectId",
          "type": "uint256"
        }
      ],
      "name": "addContributor",
      "outputs": [],
      "stateMutability": "nonpayable",
      "type": "function"
    },
    {
      "inputs": [
        {
          "internalType": "uint256",
          "name": "_projectId",
          "type": "uint256"
        },
        {
          "internalType": "uint256",
          "name": "_dataPoints",
          "type": "uint256"
        },
        {
          "internalType": "string",
          "name": "_data",
          "type": "string"
        }
      ],
      "name": "contribute",
      "outputs": [],
      "stateMutability": "nonpayable",
      "type": "function"
    },
    {
      "inputs": [
        {
          "internalType": "uint256",
          "name": "",
          "type": "uint256"
        },
        {
          "internalType": "address",
          "name": "",
          "type": "address"
        }
      ],
      "name": "contributions",
      "outputs": [
        {
          "internalType": "uint256",
          "name": "",
          "type": "uint256"
        }
      ],
      "stateMutability": "view",
      "type": "function"
    },
    {
      "inputs": [
        {
          "internalType": "string",
          "name": "_projectData",
          "type": "string"
        }
      ],
      "name": "createProject",
      "outputs": [],
      "stateMutability": "nonpayable",
      "type": "function"
    },
    {
      "inputs": [
        {
          "internalType": "uint256",
          "name": "",
          "type": "uint256"
        }
      ],
      "name": "dataContributions",
      "outputs": [
        {
          "internalType": "string",
          "name": "contributionData",
          "type": "string"
        }
      ],
      "stateMutability": "view",
      "type": "function"
    },
    {
      "inputs": [
        {
          "internalType": "uint256",
          "name": "_projectId",
          "type": "uint256"
        },
        {
          "internalType": "address",
          "name": "_contributor",
          "type": "address"
        }
      ],
      "name": "getContributorContribution",
      "outputs": [
        {
          "internalType": "uint256",
          "name": "",
          "type": "uint256"
        }
      ],
      "stateMutability": "view",
      "type": "function"
    },
    {
      "inputs": [
        {
          "internalType": "uint256",
          "name": "_dataContributionId",
          "type": "uint256"
        }
      ],
      "name": "getDataContribution",
      "outputs": [
        {
          "components": [
            {
              "internalType": "string",
              "name": "contributionData",
              "type": "string"
            }
          ],
          "internalType": "struct CitizenScienceRewards.DataContribution",
          "name": "",
          "type": "tuple"
        }
      ],
      "stateMutability": "view",
      "type": "function"
    },
    {
      "inputs": [],
      "name": "getDataContributions",
      "outputs": [
        {
          "components": [
            {
              "internalType": "string",
              "name": "contributionData",
              "type": "string"
            }
          ],
          "internalType": "struct CitizenScienceRewards.DataContribution[]",
          "name": "",
          "type": "tuple[]"
        }
      ],
      "stateMutability": "view",
      "type": "function"
    },
    {
      "inputs": [],
      "name": "getOwnedProjects",
      "outputs": [
        {
          "components": [
            {
              "internalType": "address",
              "name": "creator",
              "type": "address"
            },
            {
              "internalType": "string",
              "name": "projectData",
              "type": "string"
            },
            {
              "internalType": "address[]",
              "name": "contributors",
              "type": "address[]"
            },
            {
              "internalType": "uint256",
              "name": "totalContributions",
              "type": "uint256"
            },
            {
              "internalType": "uint256",
              "name": "totalEarnings",
              "type": "uint256"
            }
          ],
          "internalType": "struct CitizenScienceRewards.Project[]",
          "name": "",
          "type": "tuple[]"
        }
      ],
      "stateMutability": "view",
      "type": "function"
    },
    {
      "inputs": [
        {
          "internalType": "uint256",
          "name": "_projectId",
          "type": "uint256"
        }
      ],
      "name": "getProject",
      "outputs": [
        {
          "components": [
            {
              "internalType": "address",
              "name": "creator",
              "type": "address"
            },
            {
              "internalType": "string",
              "name": "projectData",
              "type": "string"
            },
            {
              "internalType": "address[]",
              "name": "contributors",
              "type": "address[]"
            },
            {
              "internalType": "uint256",
              "name": "totalContributions",
              "type": "uint256"
            },
            {
              "internalType": "uint256",
              "name": "totalEarnings",
              "type": "uint256"
            }
          ],
          "internalType": "struct CitizenScienceRewards.Project",
          "name": "",
          "type": "tuple"
        }
      ],
      "stateMutability": "view",
      "type": "function"
    },
    {
      "inputs": [
        {
          "internalType": "string",
          "name": "_projectData",
          "type": "string"
        }
      ],
      "name": "getProjectBlockId",
      "outputs": [
        {
          "internalType": "uint256",
          "name": "",
          "type": "uint256"
        }
      ],
      "stateMutability": "view",
      "type": "function"
    },
    {
      "inputs": [
        {
          "internalType": "uint256",
          "name": "_projectId",
          "type": "uint256"
        }
      ],
      "name": "getProjectContributions",
      "outputs": [
        {
          "internalType": "uint256",
          "name": "",
          "type": "uint256"
        }
      ],
      "stateMutability": "view",
      "type": "function"
    },
    {
      "inputs": [
        {
          "internalType": "uint256",
          "name": "_projectId",
          "type": "uint256"
        }
      ],
      "name": "getProjectContributorContribution",
      "outputs": [
        {
          "internalType": "uint256",
          "name": "",
          "type": "uint256"
        }
      ],
      "stateMutability": "view",
      "type": "function"
    },
    {
      "inputs": [
        {
          "internalType": "uint256",
          "name": "_projectId",
          "type": "uint256"
        }
      ],
      "name": "getProjectContributors",
      "outputs": [
        {
          "internalType": "address[]",
          "name": "",
          "type": "address[]"
        }
      ],
      "stateMutability": "view",
      "type": "function"
    },
    {
      "inputs": [
        {
          "internalType": "uint256",
          "name": "_projectId",
          "type": "uint256"
        }
      ],
      "name": "getProjectEarnings",
      "outputs": [
        {
          "internalType": "uint256",
          "name": "",
          "type": "uint256"
        }
      ],
      "stateMutability": "view",
      "type": "function"
    },
    {
      "inputs": [],
      "name": "getProjects",
      "outputs": [
        {
          "components": [
            {
              "internalType": "address",
              "name": "creator",
              "type": "address"
            },
            {
              "internalType": "string",
              "name": "projectData",
              "type": "string"
            },
            {
              "internalType": "address[]",
              "name": "contributors",
              "type": "address[]"
            },
            {
              "internalType": "uint256",
              "name": "totalContributions",
              "type": "uint256"
            },
            {
              "internalType": "uint256",
              "name": "totalEarnings",
              "type": "uint256"
            }
          ],
          "internalType": "struct CitizenScienceRewards.Project[]",
          "name": "",
          "type": "tuple[]"
        }
      ],
      "stateMutability": "view",
      "type": "function"
    },
    {
      "inputs": [
        {
          "internalType": "uint256",
          "name": "",
          "type": "uint256"
        }
      ],
      "name": "projects",
      "outputs": [
        {
          "internalType": "address",
          "name": "creator",
          "type": "address"
        },
        {
          "internalType": "string",
          "name": "projectData",
          "type": "string"
        },
        {
          "internalType": "uint256",
          "name": "totalContributions",
          "type": "uint256"
        },
        {
          "internalType": "uint256",
          "name": "totalEarnings",
          "type": "uint256"
        }
      ],
      "stateMutability": "view",
      "type": "function"
    },
    {
      "inputs": [
        {
          "internalType": "uint256",
          "name": "_projectId",
          "type": "uint256"
        }
      ],
      "name": "purchaseDataset",
      "outputs": [],
      "stateMutability": "payable",
      "type": "function"
    }
  ],
  "bytecode": "0x608060405234801561001057600080fd5b50612c89806100206000396000f3fe6080604052600436106101095760003560e01c806371b2a75b11610095578063c483548711610064578063c4835487146103bd578063cd735f3f146103fa578063dcc6012814610437578063f0f3f2c814610462578063f56c882a1461049f57610109565b806371b2a75b146102ef57806373274b89146103185780639226c45714610355578063b1492c911461039257610109565b806326f4c527116100dc57806326f4c527146101f15780633d891f591461022e57806349ee56f91461026b57806353605cc414610287578063554747b3146102b257610109565b8063107046bd1461010e57806315333c941461014e57806315ee4df11461018b57806321b5abf2146101b4575b600080fd5b34801561011a57600080fd5b5061013560048036038101906101309190611e44565b6104c8565b604051610145949392919061247f565b60405180910390f35b34801561015a57600080fd5b5061017560048036038101906101709190611e44565b6105b0565b6040516101829190612637565b60405180910390f35b34801561019757600080fd5b506101b260048036038101906101ad9190611e03565b61060a565b005b3480156101c057600080fd5b506101db60048036038101906101d69190611e44565b6107e5565b6040516101e891906125f3565b60405180910390f35b3480156101fd57600080fd5b5061021860048036038101906102139190611e03565b6108e1565b6040516102259190612637565b60405180910390f35b34801561023a57600080fd5b5061025560048036038101906102509190611e6d565b6109c7565b6040516102629190612637565b60405180910390f35b61028560048036038101906102809190611e44565b6109ec565b005b34801561029357600080fd5b5061029c610c94565b6040516102a991906124ed565b60405180910390f35b3480156102be57600080fd5b506102d960048036038101906102d49190611e44565b610d81565b6040516102e69190612637565b60405180910390f35b3480156102fb57600080fd5b5061031660048036038101906103119190611ea9565b610de2565b005b34801561032457600080fd5b5061033f600480360381019061033a9190611e44565b6110a5565b60405161034c91906124cb565b60405180910390f35b34801561036157600080fd5b5061037c60048036038101906103779190611e44565b61118a565b6040516103899190612531565b60405180910390f35b34801561039e57600080fd5b506103a761123c565b6040516103b4919061250f565b60405180910390f35b3480156103c957600080fd5b506103e460048036038101906103df9190611e6d565b61152b565b6040516103f19190612637565b60405180910390f35b34801561040657600080fd5b50610421600480360381019061041c9190611e44565b611586565b60405161042e9190612637565b60405180910390f35b34801561044357600080fd5b5061044c6115e7565b604051610459919061250f565b60405180910390f35b34801561046e57600080fd5b5061048960048036038101906104849190611e44565b6117d0565b6040516104969190612615565b60405180910390f35b3480156104ab57600080fd5b506104c660048036038101906104c19190611e44565b6119c8565b005b600281815481106104d857600080fd5b90600052602060002090600502016000915090508060000160009054906101000a900473ffffffffffffffffffffffffffffffffffffffff16908060010180546105219061296d565b80601f016020809104026020016040519081016040528092919081815260200182805461054d9061296d565b801561059a5780601f1061056f5761010080835404028352916020019161059a565b820191906000526020600020905b81548152906001019060200180831161057d57829003601f168201915b5050505050908060030154908060040154905084565b60006004600083815260200190815260200160002060003373ffffffffffffffffffffffffffffffffffffffff1673ffffffffffffffffffffffffffffffffffffffff168152602001908152602001600020549050919050565b6106146000611bc8565b60006106206000611bde565b905060026040518060a001604052803373ffffffffffffffffffffffffffffffffffffffff168152602001848152602001600067ffffffffffffffff811115610692577f4e487b7100000000000000000000000000000000000000000000000000000000600052604160045260246000fd5b6040519080825280602002602001820160405280156106c05781602001602082028036833780820191505090505b508152602001600081526020016000815250908060018154018082558091505060019003906000526020600020906005020160009091909190915060008201518160000160006101000a81548173ffffffffffffffffffffffffffffffffffffffff021916908373ffffffffffffffffffffffffffffffffffffffff160217905550602082015181600101908051906020019061075e929190611bec565b50604082015181600201908051906020019061077b929190611c72565b50606082015181600301556080820151816004015550503373ffffffffffffffffffffffffffffffffffffffff16817f9d9ec461f162f3f4fdb9f6d189bfe13c59e48d8acd23a4c3bfcf7cc0fe4e84ed846040516107d99190612531565b60405180910390a35050565b6107ed611cfc565b60036001836107fc91906128bb565b81548110610833577f4e487b7100000000000000000000000000000000000000000000000000000000600052603260045260246000fd5b906000526020600020016040518060200160405290816000820180546108589061296d565b80601f01602080910402602001604051908101604052809291908181526020018280546108849061296d565b80156108d15780601f106108a6576101008083540402835291602001916108d1565b820191906000526020600020905b8154815290600101906020018083116108b457829003601f168201915b5050505050815250509050919050565b600080600090505b6002805490508110156109bc57826040516020016109079190612451565b6040516020818303038152906040528051906020012060028281548110610957577f4e487b7100000000000000000000000000000000000000000000000000000000600052603260045260246000fd5b90600052602060002090600502016001016040516020016109789190612468565b6040516020818303038152906040528051906020012014156109a9576001816109a191906127da565b9150506109c2565b80806109b4906129d0565b9150506108e9565b50600090505b919050565b6004602052816000526040600020602052806000526040600020600091509150505481565b60003411610a2f576040517f08c379a0000000000000000000000000000000000000000000000000000000008152600401610a2690612593565b60405180910390fd5b60006002600183610a4091906128bb565b81548110610a77577f4e487b7100000000000000000000000000000000000000000000000000000000600052603260045260246000fd5b9060005260206000209060050201905060008160030154905060008111610ad3576040517f08c379a0000000000000000000000000000000000000000000000000000000008152600401610aca90612573565b60405180910390fd5b600034905080836004016000828254610aec91906127da565b9250508190555060005b8360020180549050811015610c3d576000846002018281548110610b43577f4e487b7100000000000000000000000000000000000000000000000000000000600052603260045260246000fd5b9060005260206000200160009054906101000a900473ffffffffffffffffffffffffffffffffffffffff16905060006004600088815260200190815260200160002060008373ffffffffffffffffffffffffffffffffffffffff1673ffffffffffffffffffffffffffffffffffffffff1681526020019081526020016000205490506000858583610bd49190612861565b610bde9190612830565b90508273ffffffffffffffffffffffffffffffffffffffff166108fc829081150290604051600060405180830381858888f19350505050158015610c26573d6000803e3d6000fd5b505050508080610c35906129d0565b915050610af6565b503373ffffffffffffffffffffffffffffffffffffffff167f313d5c7bf54e15a1b7dc24a51b097c6458663a33e7a4be386f80fea411dcda658583604051610c86929190612652565b60405180910390a250505050565b60606003805480602002602001604051908101604052809291908181526020016000905b82821015610d7857838290600052602060002001604051806020016040529081600082018054610ce79061296d565b80601f0160208091040260200160405190810160405280929190818152602001828054610d139061296d565b8015610d605780601f10610d3557610100808354040283529160200191610d60565b820191906000526020600020905b815481529060010190602001808311610d4357829003601f168201915b50505050508152505081526020019060010190610cb8565b50505050905090565b60006002600183610d9291906128bb565b81548110610dc9577f4e487b7100000000000000000000000000000000000000000000000000000000600052603260045260246000fd5b9060005260206000209060050201600301549050919050565b60008211610e25576040517f08c379a0000000000000000000000000000000000000000000000000000000008152600401610e1c90612553565b60405180910390fd5b600073ffffffffffffffffffffffffffffffffffffffff166002600185610e4c91906128bb565b81548110610e83577f4e487b7100000000000000000000000000000000000000000000000000000000600052603260045260246000fd5b906000526020600020906005020160000160009054906101000a900473ffffffffffffffffffffffffffffffffffffffff1673ffffffffffffffffffffffffffffffffffffffff161415610f0c576040517f08c379a0000000000000000000000000000000000000000000000000000000008152600401610f03906125d3565b60405180910390fd5b610f166001611bc8565b6000610f226001611bde565b90506003604051806020016040528084815250908060018154018082558091505060019003906000526020600020016000909190919091506000820151816000019080519060200190610f76929190611bec565b505050826004600086815260200190815260200160002060003373ffffffffffffffffffffffffffffffffffffffff1673ffffffffffffffffffffffffffffffffffffffff1681526020019081526020016000206000828254610fd991906127da565b92505081905550826002600186610ff091906128bb565b81548110611027577f4e487b7100000000000000000000000000000000000000000000000000000000600052603260045260246000fd5b9060005260206000209060050201600301600082825461104791906127da565b925050819055503373ffffffffffffffffffffffffffffffffffffffff16817f7431e5e30247dcb2379eab9b0e60e49038c5ddb5cac27f27a17e950c0220a6938686604051611097929190612652565b60405180910390a350505050565b606060026001836110b691906128bb565b815481106110ed577f4e487b7100000000000000000000000000000000000000000000000000000000600052603260045260246000fd5b906000526020600020906005020160020180548060200260200160405190810160405280929190818152602001828054801561117e57602002820191906000526020600020905b8160009054906101000a900473ffffffffffffffffffffffffffffffffffffffff1673ffffffffffffffffffffffffffffffffffffffff1681526020019060010190808311611134575b50505050509050919050565b6003818154811061119a57600080fd5b906000526020600020016000915090508060000180546111b99061296d565b80601f01602080910402602001604051908101604052809291908181526020018280546111e59061296d565b80156112325780601f1061120757610100808354040283529160200191611232565b820191906000526020600020905b81548152906001019060200180831161121557829003601f168201915b5050505050905081565b60608060005b600280549050811015611523573373ffffffffffffffffffffffffffffffffffffffff16600282815481106112a0577f4e487b7100000000000000000000000000000000000000000000000000000000600052603260045260246000fd5b906000526020600020906005020160000160009054906101000a900473ffffffffffffffffffffffffffffffffffffffff1673ffffffffffffffffffffffffffffffffffffffff1614156115105760028181548110611328577f4e487b7100000000000000000000000000000000000000000000000000000000600052603260045260246000fd5b90600052602060002090600502016040518060a00160405290816000820160009054906101000a900473ffffffffffffffffffffffffffffffffffffffff1673ffffffffffffffffffffffffffffffffffffffff1673ffffffffffffffffffffffffffffffffffffffff1681526020016001820180546113a79061296d565b80601f01602080910402602001604051908101604052809291908181526020018280546113d39061296d565b80156114205780601f106113f557610100808354040283529160200191611420565b820191906000526020600020905b81548152906001019060200180831161140357829003601f168201915b50505050508152602001600282018054806020026020016040519081016040528092919081815260200182805480156114ae57602002820191906000526020600020905b8160009054906101000a900473ffffffffffffffffffffffffffffffffffffffff1673ffffffffffffffffffffffffffffffffffffffff1681526020019060010190808311611464575b5050505050815260200160038201548152602001600482015481525050828281518110611504577f4e487b7100000000000000000000000000000000000000000000000000000000600052603260045260246000fd5b60200260200101819052505b808061151b906129d0565b915050611242565b508091505090565b60006004600084815260200190815260200160002060008373ffffffffffffffffffffffffffffffffffffffff1673ffffffffffffffffffffffffffffffffffffffff16815260200190815260200160002054905092915050565b6000600260018361159791906128bb565b815481106115ce577f4e487b7100000000000000000000000000000000000000000000000000000000600052603260045260246000fd5b9060005260206000209060050201600401549050919050565b60606002805480602002602001604051908101604052809291908181526020016000905b828210156117c757838290600052602060002090600502016040518060a00160405290816000820160009054906101000a900473ffffffffffffffffffffffffffffffffffffffff1673ffffffffffffffffffffffffffffffffffffffff1673ffffffffffffffffffffffffffffffffffffffff1681526020016001820180546116949061296d565b80601f01602080910402602001604051908101604052809291908181526020018280546116c09061296d565b801561170d5780601f106116e25761010080835404028352916020019161170d565b820191906000526020600020905b8154815290600101906020018083116116f057829003601f168201915b505050505081526020016002820180548060200260200160405190810160405280929190818152602001828054801561179b57602002820191906000526020600020905b8160009054906101000a900473ffffffffffffffffffffffffffffffffffffffff1673ffffffffffffffffffffffffffffffffffffffff1681526020019060010190808311611751575b50505050508152602001600382015481526020016004820154815250508152602001906001019061160b565b50505050905090565b6117d8611d0f565b60026001836117e791906128bb565b8154811061181e577f4e487b7100000000000000000000000000000000000000000000000000000000600052603260045260246000fd5b90600052602060002090600502016040518060a00160405290816000820160009054906101000a900473ffffffffffffffffffffffffffffffffffffffff1673ffffffffffffffffffffffffffffffffffffffff1673ffffffffffffffffffffffffffffffffffffffff16815260200160018201805461189d9061296d565b80601f01602080910402602001604051908101604052809291908181526020018280546118c99061296d565b80156119165780601f106118eb57610100808354040283529160200191611916565b820191906000526020600020905b8154815290600101906020018083116118f957829003601f168201915b50505050508152602001600282018054806020026020016040519081016040528092919081815260200182805480156119a457602002820191906000526020600020905b8160009054906101000a900473ffffffffffffffffffffffffffffffffffffffff1673ffffffffffffffffffffffffffffffffffffffff168152602001906001019080831161195a575b50505050508152602001600382015481526020016004820154815250509050919050565b600060026001836119d991906128bb565b81548110611a10577f4e487b7100000000000000000000000000000000000000000000000000000000600052603260045260246000fd5b9060005260206000209060050201905060005b8160020180549050811015611b1a573373ffffffffffffffffffffffffffffffffffffffff16826002018281548110611a85577f4e487b7100000000000000000000000000000000000000000000000000000000600052603260045260246000fd5b9060005260206000200160009054906101000a900473ffffffffffffffffffffffffffffffffffffffff1673ffffffffffffffffffffffffffffffffffffffff161415611b07576040517f08c379a0000000000000000000000000000000000000000000000000000000008152600401611afe906125b3565b60405180910390fd5b8080611b12906129d0565b915050611a23565b5080600201339080600181540180825580915050600190039060005260206000200160009091909190916101000a81548173ffffffffffffffffffffffffffffffffffffffff021916908373ffffffffffffffffffffffffffffffffffffffff1602179055503373ffffffffffffffffffffffffffffffffffffffff16827f7c29733edbbbc7f83fc8c5fb3231ab4c21421e8da3e7bb05cddc0c2be2d0cf6560405160405180910390a35050565b6001816000016000828254019250508190555050565b600081600001549050919050565b828054611bf89061296d565b90600052602060002090601f016020900481019282611c1a5760008555611c61565b82601f10611c3357805160ff1916838001178555611c61565b82800160010185558215611c61579182015b82811115611c60578251825591602001919060010190611c45565b5b509050611c6e9190611d54565b5090565b828054828255906000526020600020908101928215611ceb579160200282015b82811115611cea5782518260006101000a81548173ffffffffffffffffffffffffffffffffffffffff021916908373ffffffffffffffffffffffffffffffffffffffff16021790555091602001919060010190611c92565b5b509050611cf89190611d54565b5090565b6040518060200160405280606081525090565b6040518060a00160405280600073ffffffffffffffffffffffffffffffffffffffff168152602001606081526020016060815260200160008152602001600081525090565b5b80821115611d6d576000816000905550600101611d55565b5090565b6000611d84611d7f846126a0565b61267b565b905082815260208101848484011115611d9c57600080fd5b611da784828561292b565b509392505050565b600081359050611dbe81612c25565b92915050565b600082601f830112611dd557600080fd5b8135611de5848260208601611d71565b91505092915050565b600081359050611dfd81612c3c565b92915050565b600060208284031215611e1557600080fd5b600082013567ffffffffffffffff811115611e2f57600080fd5b611e3b84828501611dc4565b91505092915050565b600060208284031215611e5657600080fd5b6000611e6484828501611dee565b91505092915050565b60008060408385031215611e8057600080fd5b6000611e8e85828601611dee565b9250506020611e9f85828601611daf565b9150509250929050565b600080600060608486031215611ebe57600080fd5b6000611ecc86828701611dee565b9350506020611edd86828701611dee565b925050604084013567ffffffffffffffff811115611efa57600080fd5b611f0686828701611dc4565b9150509250925092565b6000611f1c8383611f50565b60208301905092915050565b6000611f3483836122e5565b905092915050565b6000611f488383612339565b905092915050565b611f59816128ef565b82525050565b611f68816128ef565b82525050565b6000611f7982612716565b611f838185612769565b9350611f8e836126d1565b8060005b83811015611fbf578151611fa68882611f10565b9750611fb183612742565b925050600181019050611f92565b5085935050505092915050565b6000611fd782612716565b611fe1818561277a565b9350611fec836126d1565b8060005b8381101561201d5781516120048882611f10565b975061200f83612742565b925050600181019050611ff0565b5085935050505092915050565b600061203582612721565b61203f818561278b565b935083602082028501612051856126e1565b8060005b8581101561208d578484038952815161206e8582611f28565b94506120798361274f565b925060208a01995050600181019050612055565b50829750879550505050505092915050565b60006120aa8261272c565b6120b4818561279c565b9350836020820285016120c6856126f1565b8060005b8581101561210257848403895281516120e38582611f3c565b94506120ee8361275c565b925060208a019950506001810190506120ca565b50829750879550505050505092915050565b600061211f82612737565b61212981856127ad565b935061213981856020860161293a565b61214281612ad5565b840191505092915050565b600061215882612737565b61216281856127be565b935061217281856020860161293a565b61217b81612ad5565b840191505092915050565b600061219182612737565b61219b81856127cf565b93506121ab81856020860161293a565b80840191505092915050565b600081546121c48161296d565b6121ce81866127cf565b945060018216600081146121e957600181146121fa5761222d565b60ff1983168652818601935061222d565b61220385612701565b60005b8381101561222557815481890152600182019150602081019050612206565b838801955050505b50505092915050565b60006122436022836127be565b915061224e82612ae6565b604082019050919050565b6000612266602f836127be565b915061227182612b35565b604082019050919050565b60006122896029836127be565b915061229482612b84565b604082019050919050565b60006122ac601a836127be565b91506122b782612bd3565b602082019050919050565b60006122cf6016836127be565b91506122da82612bfc565b602082019050919050565b600060208301600083015184820360008601526123028282612114565b9150508091505092915050565b6000602083016000830151848203600086015261232c8282612114565b9150508091505092915050565b600060a0830160008301516123516000860182611f50565b50602083015184820360208601526123698282612114565b915050604083015184820360408601526123838282611f6e565b91505060608301516123986060860182612433565b5060808301516123ab6080860182612433565b508091505092915050565b600060a0830160008301516123ce6000860182611f50565b50602083015184820360208601526123e68282612114565b915050604083015184820360408601526124008282611f6e565b91505060608301516124156060860182612433565b5060808301516124286080860182612433565b508091505092915050565b61243c81612921565b82525050565b61244b81612921565b82525050565b600061245d8284612186565b915081905092915050565b600061247482846121b7565b915081905092915050565b60006080820190506124946000830187611f5f565b81810360208301526124a6818661214d565b90506124b56040830185612442565b6124c26060830184612442565b95945050505050565b600060208201905081810360008301526124e58184611fcc565b905092915050565b60006020820190508181036000830152612507818461202a565b905092915050565b60006020820190508181036000830152612529818461209f565b905092915050565b6000602082019050818103600083015261254b818461214d565b905092915050565b6000602082019050818103600083015261256c81612236565b9050919050565b6000602082019050818103600083015261258c81612259565b9050919050565b600060208201905081810360008301526125ac8161227c565b9050919050565b600060208201905081810360008301526125cc8161229f565b9050919050565b600060208201905081810360008301526125ec816122c2565b9050919050565b6000602082019050818103600083015261260d818461230f565b905092915050565b6000602082019050818103600083015261262f81846123b6565b905092915050565b600060208201905061264c6000830184612442565b92915050565b60006040820190506126676000830185612442565b6126746020830184612442565b9392505050565b6000612685612696565b9050612691828261299f565b919050565b6000604051905090565b600067ffffffffffffffff8211156126bb576126ba612aa6565b5b6126c482612ad5565b9050602081019050919050565b6000819050602082019050919050565b6000819050602082019050919050565b6000819050602082019050919050565b60008190508160005260206000209050919050565b600081519050919050565b600081519050919050565b600081519050919050565b600081519050919050565b6000602082019050919050565b6000602082019050919050565b6000602082019050919050565b600082825260208201905092915050565b600082825260208201905092915050565b600082825260208201905092915050565b600082825260208201905092915050565b600082825260208201905092915050565b600082825260208201905092915050565b600081905092915050565b60006127e582612921565b91506127f083612921565b9250827fffffffffffffffffffffffffffffffffffffffffffffffffffffffffffffffff0382111561282557612824612a19565b5b828201905092915050565b600061283b82612921565b915061284683612921565b92508261285657612855612a48565b5b828204905092915050565b600061286c82612921565b915061287783612921565b9250817fffffffffffffffffffffffffffffffffffffffffffffffffffffffffffffffff04831182151516156128b0576128af612a19565b5b828202905092915050565b60006128c682612921565b91506128d183612921565b9250828210156128e4576128e3612a19565b5b828203905092915050565b60006128fa82612901565b9050919050565b600073ffffffffffffffffffffffffffffffffffffffff82169050919050565b6000819050919050565b82818337600083830152505050565b60005b8381101561295857808201518184015260208101905061293d565b83811115612967576000848401525b50505050565b6000600282049050600182168061298557607f821691505b6020821081141561299957612998612a77565b5b50919050565b6129a882612ad5565b810181811067ffffffffffffffff821117156129c7576129c6612aa6565b5b80604052505050565b60006129db82612921565b91507fffffffffffffffffffffffffffffffffffffffffffffffffffffffffffffffff821415612a0e57612a0d612a19565b5b600182019050919050565b7f4e487b7100000000000000000000000000000000000000000000000000000000600052601160045260246000fd5b7f4e487b7100000000000000000000000000000000000000000000000000000000600052601260045260246000fd5b7f4e487b7100000000000000000000000000000000000000000000000000000000600052602260045260246000fd5b7f4e487b7100000000000000000000000000000000000000000000000000000000600052604160045260246000fd5b6000601f19601f8301169050919050565b7f436f6e747269627574696f6e206d7573742068617665206461746120706f696e60008201527f7473000000000000000000000000000000000000000000000000000000000000602082015250565b7f4e6f20636f6e747269627574696f6e732068617665206265656e206d6164652060008201527f746f20746869732070726f6a6563740000000000000000000000000000000000602082015250565b7f507572636861736520616d6f756e74206d75737420626520677265617465722060008201527f7468616e207a65726f0000000000000000000000000000000000000000000000602082015250565b7f436f6e7472696275746f7220616c726561647920657869737473000000000000600082015250565b7f50726f6a65637420646f6573206e6f7420657869737400000000000000000000600082015250565b612c2e816128ef565b8114612c3957600080fd5b50565b612c4581612921565b8114612c5057600080fd5b5056fea26469706673582212209346cebe23635f6288327e99113b155790cb5de777eb2aced2ac226ea15ddc1364736f6c63430008040033",
  "linkReferences": {},
  "deployedLinkReferences": {}
}