{
  "_format": "hh-sol-artifact-1",
  "contractName": "CitizenScienceRewards",
  "sourceName": "contracts/CitizenScienceRewards.sol",
  "abi": [
    {
      "anonymous": false,
      "inputs": [
        {
          "indexed": true,
          "internalType": "uint256",
          "name": "id",
          "type": "uint256"
        },
        {
          "indexed": false,
          "internalType": "uint256",
          "name": "projectId",
          "type": "uint256"
        },
        {
          "indexed": true,
          "internalType": "address",
          "name": "contributor",
          "type": "address"
        },
        {
          "indexed": false,
          "internalType": "uint256",
          "name": "amount",
          "type": "uint256"
        }
      ],
      "name": "ContributionAdded",
      "type": "event"
    },
    {
      "anonymous": false,
      "inputs": [
        {
          "indexed": true,
          "internalType": "uint256",
          "name": "id",
          "type": "uint256"
        },
        {
          "indexed": true,
          "internalType": "address",
          "name": "contributor",
          "type": "address"
        }
      ],
      "name": "ContributorAdded",
      "type": "event"
    },
    {
      "anonymous": false,
      "inputs": [
        {
          "indexed": false,
          "internalType": "uint256",
          "name": "projectId",
          "type": "uint256"
        },
        {
          "indexed": true,
          "internalType": "address",
          "name": "buyer",
          "type": "address"
        },
        {
          "indexed": false,
          "internalType": "uint256",
          "name": "earnings",
          "type": "uint256"
        }
      ],
      "name": "DatasetPurchased",
      "type": "event"
    },
    {
      "anonymous": false,
      "inputs": [
        {
          "indexed": true,
          "internalType": "uint256",
          "name": "id",
          "type": "uint256"
        },
        {
          "indexed": true,
          "internalType": "address",
          "name": "creator",
          "type": "address"
        },
        {
          "indexed": false,
          "internalType": "string",
          "name": "projectData",
          "type": "string"
        }
      ],
      "name": "ProjectCreated",
      "type": "event"
    },
    {
      "inputs": [
        {
          "internalType": "uint256",
          "name": "_projectId",
          "type": "uint256"
        }
      ],
      "name": "addContributor",
      "outputs": [],
      "stateMutability": "nonpayable",
      "type": "function"
    },
    {
      "inputs": [
        {
          "internalType": "uint256",
          "name": "_projectId",
          "type": "uint256"
        },
        {
          "internalType": "uint256",
          "name": "_dataPoints",
          "type": "uint256"
        },
        {
          "internalType": "string",
          "name": "_data",
          "type": "string"
        }
      ],
      "name": "contribute",
      "outputs": [],
      "stateMutability": "nonpayable",
      "type": "function"
    },
    {
      "inputs": [
        {
          "internalType": "uint256",
          "name": "",
          "type": "uint256"
        },
        {
          "internalType": "address",
          "name": "",
          "type": "address"
        }
      ],
      "name": "contributions",
      "outputs": [
        {
          "internalType": "uint256",
          "name": "",
          "type": "uint256"
        }
      ],
      "stateMutability": "view",
      "type": "function"
    },
    {
      "inputs": [
        {
          "internalType": "string",
          "name": "_projectData",
          "type": "string"
        }
      ],
      "name": "createProject",
      "outputs": [],
      "stateMutability": "nonpayable",
      "type": "function"
    },
    {
      "inputs": [
        {
          "internalType": "uint256",
          "name": "",
          "type": "uint256"
        }
      ],
      "name": "dataContributions",
      "outputs": [
        {
          "internalType": "string",
          "name": "contributionData",
          "type": "string"
        }
      ],
      "stateMutability": "view",
      "type": "function"
    },
    {
      "inputs": [
        {
          "internalType": "uint256",
          "name": "_projectId",
          "type": "uint256"
        },
        {
          "internalType": "address",
          "name": "_contributor",
          "type": "address"
        }
      ],
      "name": "getContributorContribution",
      "outputs": [
        {
          "internalType": "uint256",
          "name": "",
          "type": "uint256"
        }
      ],
      "stateMutability": "view",
      "type": "function"
    },
    {
      "inputs": [
        {
          "internalType": "uint256",
          "name": "_dataContributionId",
          "type": "uint256"
        }
      ],
      "name": "getDataContribution",
      "outputs": [
        {
          "components": [
            {
              "internalType": "string",
              "name": "contributionData",
              "type": "string"
            }
          ],
          "internalType": "struct CitizenScienceRewards.DataContribution",
          "name": "",
          "type": "tuple"
        }
      ],
      "stateMutability": "view",
      "type": "function"
    },
    {
      "inputs": [],
      "name": "getDataContributions",
      "outputs": [
        {
          "components": [
            {
              "internalType": "string",
              "name": "contributionData",
              "type": "string"
            }
          ],
          "internalType": "struct CitizenScienceRewards.DataContribution[]",
          "name": "",
          "type": "tuple[]"
        }
      ],
      "stateMutability": "view",
      "type": "function"
    },
    {
      "inputs": [],
      "name": "getOwnedProjects",
      "outputs": [
        {
          "components": [
            {
              "internalType": "address",
              "name": "creator",
              "type": "address"
            },
            {
              "internalType": "string",
              "name": "projectData",
              "type": "string"
            },
            {
              "internalType": "address[]",
              "name": "contributors",
              "type": "address[]"
            },
            {
              "internalType": "uint256",
              "name": "totalContributions",
              "type": "uint256"
            },
            {
              "internalType": "uint256",
              "name": "totalEarnings",
              "type": "uint256"
            }
          ],
          "internalType": "struct CitizenScienceRewards.Project[]",
          "name": "",
          "type": "tuple[]"
        }
      ],
      "stateMutability": "view",
      "type": "function"
    },
    {
      "inputs": [
        {
          "internalType": "uint256",
          "name": "_projectId",
          "type": "uint256"
        }
      ],
      "name": "getProject",
      "outputs": [
        {
          "components": [
            {
              "internalType": "address",
              "name": "creator",
              "type": "address"
            },
            {
              "internalType": "string",
              "name": "projectData",
              "type": "string"
            },
            {
              "internalType": "address[]",
              "name": "contributors",
              "type": "address[]"
            },
            {
              "internalType": "uint256",
              "name": "totalContributions",
              "type": "uint256"
            },
            {
              "internalType": "uint256",
              "name": "totalEarnings",
              "type": "uint256"
            }
          ],
          "internalType": "struct CitizenScienceRewards.Project",
          "name": "",
          "type": "tuple"
        }
      ],
      "stateMutability": "view",
      "type": "function"
    },
    {
      "inputs": [
        {
          "internalType": "uint256",
          "name": "_projectId",
          "type": "uint256"
        }
      ],
      "name": "getProjectContributions",
      "outputs": [
        {
          "internalType": "uint256",
          "name": "",
          "type": "uint256"
        }
      ],
      "stateMutability": "view",
      "type": "function"
    },
    {
      "inputs": [
        {
          "internalType": "uint256",
          "name": "_projectId",
          "type": "uint256"
        }
      ],
      "name": "getProjectContributorContribution",
      "outputs": [
        {
          "internalType": "uint256",
          "name": "",
          "type": "uint256"
        }
      ],
      "stateMutability": "view",
      "type": "function"
    },
    {
      "inputs": [
        {
          "internalType": "uint256",
          "name": "_projectId",
          "type": "uint256"
        }
      ],
      "name": "getProjectContributors",
      "outputs": [
        {
          "internalType": "address[]",
          "name": "",
          "type": "address[]"
        }
      ],
      "stateMutability": "view",
      "type": "function"
    },
    {
      "inputs": [
        {
          "internalType": "uint256",
          "name": "_projectId",
          "type": "uint256"
        }
      ],
      "name": "getProjectEarnings",
      "outputs": [
        {
          "internalType": "uint256",
          "name": "",
          "type": "uint256"
        }
      ],
      "stateMutability": "view",
      "type": "function"
    },
    {
      "inputs": [],
      "name": "getProjects",
      "outputs": [
        {
          "components": [
            {
              "internalType": "address",
              "name": "creator",
              "type": "address"
            },
            {
              "internalType": "string",
              "name": "projectData",
              "type": "string"
            },
            {
              "internalType": "address[]",
              "name": "contributors",
              "type": "address[]"
            },
            {
              "internalType": "uint256",
              "name": "totalContributions",
              "type": "uint256"
            },
            {
              "internalType": "uint256",
              "name": "totalEarnings",
              "type": "uint256"
            }
          ],
          "internalType": "struct CitizenScienceRewards.Project[]",
          "name": "",
          "type": "tuple[]"
        }
      ],
      "stateMutability": "view",
      "type": "function"
    },
    {
      "inputs": [
        {
          "internalType": "uint256",
          "name": "",
          "type": "uint256"
        }
      ],
      "name": "projects",
      "outputs": [
        {
          "internalType": "address",
          "name": "creator",
          "type": "address"
        },
        {
          "internalType": "string",
          "name": "projectData",
          "type": "string"
        },
        {
          "internalType": "uint256",
          "name": "totalContributions",
          "type": "uint256"
        },
        {
          "internalType": "uint256",
          "name": "totalEarnings",
          "type": "uint256"
        }
      ],
      "stateMutability": "view",
      "type": "function"
    },
    {
      "inputs": [
        {
          "internalType": "uint256",
          "name": "_projectId",
          "type": "uint256"
        }
      ],
      "name": "purchaseDataset",
      "outputs": [],
      "stateMutability": "payable",
      "type": "function"
    }
  ],
  "bytecode": "0x608060405234801561001057600080fd5b50612a5d806100206000396000f3fe6080604052600436106100fe5760003560e01c806371b2a75b11610095578063c483548711610064578063c483548714610375578063cd735f3f146103b2578063dcc60128146103ef578063f0f3f2c81461041a578063f56c882a14610457576100fe565b806371b2a75b146102a757806373274b89146102d05780639226c4571461030d578063b1492c911461034a576100fe565b80633d891f59116100d15780633d891f59146101e657806349ee56f91461022357806353605cc41461023f578063554747b31461026a576100fe565b8063107046bd1461010357806315333c941461014357806315ee4df11461018057806321b5abf2146101a9575b600080fd5b34801561010f57600080fd5b5061012a60048036038101906101259190611d16565b610480565b60405161013a9493929190612273565b60405180910390f35b34801561014f57600080fd5b5061016a60048036038101906101659190611d16565b610568565b604051610177919061242b565b60405180910390f35b34801561018c57600080fd5b506101a760048036038101906101a29190611cd5565b6105c2565b005b3480156101b557600080fd5b506101d060048036038101906101cb9190611d16565b61079d565b6040516101dd91906123e7565b60405180910390f35b3480156101f257600080fd5b5061020d60048036038101906102089190611d3f565b610899565b60405161021a919061242b565b60405180910390f35b61023d60048036038101906102389190611d16565b6108be565b005b34801561024b57600080fd5b50610254610b66565b60405161026191906122e1565b60405180910390f35b34801561027657600080fd5b50610291600480360381019061028c9190611d16565b610c53565b60405161029e919061242b565b60405180910390f35b3480156102b357600080fd5b506102ce60048036038101906102c99190611d7b565b610cb4565b005b3480156102dc57600080fd5b506102f760048036038101906102f29190611d16565b610f77565b60405161030491906122bf565b60405180910390f35b34801561031957600080fd5b50610334600480360381019061032f9190611d16565b61105c565b6040516103419190612325565b60405180910390f35b34801561035657600080fd5b5061035f61110e565b60405161036c9190612303565b60405180910390f35b34801561038157600080fd5b5061039c60048036038101906103979190611d3f565b6113fd565b6040516103a9919061242b565b60405180910390f35b3480156103be57600080fd5b506103d960048036038101906103d49190611d16565b611458565b6040516103e6919061242b565b60405180910390f35b3480156103fb57600080fd5b506104046114b9565b6040516104119190612303565b60405180910390f35b34801561042657600080fd5b50610441600480360381019061043c9190611d16565b6116a2565b60405161044e9190612409565b60405180910390f35b34801561046357600080fd5b5061047e60048036038101906104799190611d16565b61189a565b005b6002818154811061049057600080fd5b90600052602060002090600502016000915090508060000160009054906101000a900473ffffffffffffffffffffffffffffffffffffffff16908060010180546104d990612741565b80601f016020809104026020016040519081016040528092919081815260200182805461050590612741565b80156105525780601f1061052757610100808354040283529160200191610552565b820191906000526020600020905b81548152906001019060200180831161053557829003601f168201915b5050505050908060030154908060040154905084565b60006004600083815260200190815260200160002060003373ffffffffffffffffffffffffffffffffffffffff1673ffffffffffffffffffffffffffffffffffffffff168152602001908152602001600020549050919050565b6105cc6000611a9a565b60006105d86000611ab0565b905060026040518060a001604052803373ffffffffffffffffffffffffffffffffffffffff168152602001848152602001600067ffffffffffffffff81111561064a577f4e487b7100000000000000000000000000000000000000000000000000000000600052604160045260246000fd5b6040519080825280602002602001820160405280156106785781602001602082028036833780820191505090505b508152602001600081526020016000815250908060018154018082558091505060019003906000526020600020906005020160009091909190915060008201518160000160006101000a81548173ffffffffffffffffffffffffffffffffffffffff021916908373ffffffffffffffffffffffffffffffffffffffff1602179055506020820151816001019080519060200190610716929190611abe565b506040820151816002019080519060200190610733929190611b44565b50606082015181600301556080820151816004015550503373ffffffffffffffffffffffffffffffffffffffff16817f9d9ec461f162f3f4fdb9f6d189bfe13c59e48d8acd23a4c3bfcf7cc0fe4e84ed846040516107919190612325565b60405180910390a35050565b6107a5611bce565b60036001836107b4919061268f565b815481106107eb577f4e487b7100000000000000000000000000000000000000000000000000000000600052603260045260246000fd5b9060005260206000200160405180602001604052908160008201805461081090612741565b80601f016020809104026020016040519081016040528092919081815260200182805461083c90612741565b80156108895780601f1061085e57610100808354040283529160200191610889565b820191906000526020600020905b81548152906001019060200180831161086c57829003601f168201915b5050505050815250509050919050565b6004602052816000526040600020602052806000526040600020600091509150505481565b60003411610901576040517f08c379a00000000000000000000000000000000000000000000000000000000081526004016108f890612387565b60405180910390fd5b60006002600183610912919061268f565b81548110610949577f4e487b7100000000000000000000000000000000000000000000000000000000600052603260045260246000fd5b90600052602060002090600502019050600081600301549050600081116109a5576040517f08c379a000000000000000000000000000000000000000000000000000000000815260040161099c90612367565b60405180910390fd5b6000349050808360040160008282546109be91906125ae565b9250508190555060005b8360020180549050811015610b0f576000846002018281548110610a15577f4e487b7100000000000000000000000000000000000000000000000000000000600052603260045260246000fd5b9060005260206000200160009054906101000a900473ffffffffffffffffffffffffffffffffffffffff16905060006004600088815260200190815260200160002060008373ffffffffffffffffffffffffffffffffffffffff1673ffffffffffffffffffffffffffffffffffffffff1681526020019081526020016000205490506000858583610aa69190612635565b610ab09190612604565b90508273ffffffffffffffffffffffffffffffffffffffff166108fc829081150290604051600060405180830381858888f19350505050158015610af8573d6000803e3d6000fd5b505050508080610b07906127a4565b9150506109c8565b503373ffffffffffffffffffffffffffffffffffffffff167f313d5c7bf54e15a1b7dc24a51b097c6458663a33e7a4be386f80fea411dcda658583604051610b58929190612446565b60405180910390a250505050565b60606003805480602002602001604051908101604052809291908181526020016000905b82821015610c4a57838290600052602060002001604051806020016040529081600082018054610bb990612741565b80601f0160208091040260200160405190810160405280929190818152602001828054610be590612741565b8015610c325780601f10610c0757610100808354040283529160200191610c32565b820191906000526020600020905b815481529060010190602001808311610c1557829003601f168201915b50505050508152505081526020019060010190610b8a565b50505050905090565b60006002600183610c64919061268f565b81548110610c9b577f4e487b7100000000000000000000000000000000000000000000000000000000600052603260045260246000fd5b9060005260206000209060050201600301549050919050565b60008211610cf7576040517f08c379a0000000000000000000000000000000000000000000000000000000008152600401610cee90612347565b60405180910390fd5b600073ffffffffffffffffffffffffffffffffffffffff166002600185610d1e919061268f565b81548110610d55577f4e487b7100000000000000000000000000000000000000000000000000000000600052603260045260246000fd5b906000526020600020906005020160000160009054906101000a900473ffffffffffffffffffffffffffffffffffffffff1673ffffffffffffffffffffffffffffffffffffffff161415610dde576040517f08c379a0000000000000000000000000000000000000000000000000000000008152600401610dd5906123c7565b60405180910390fd5b610de86001611a9a565b6000610df46001611ab0565b90506003604051806020016040528084815250908060018154018082558091505060019003906000526020600020016000909190919091506000820151816000019080519060200190610e48929190611abe565b505050826004600086815260200190815260200160002060003373ffffffffffffffffffffffffffffffffffffffff1673ffffffffffffffffffffffffffffffffffffffff1681526020019081526020016000206000828254610eab91906125ae565b92505081905550826002600186610ec2919061268f565b81548110610ef9577f4e487b7100000000000000000000000000000000000000000000000000000000600052603260045260246000fd5b90600052602060002090600502016003016000828254610f1991906125ae565b925050819055503373ffffffffffffffffffffffffffffffffffffffff16817f7431e5e30247dcb2379eab9b0e60e49038c5ddb5cac27f27a17e950c0220a6938686604051610f69929190612446565b60405180910390a350505050565b60606002600183610f88919061268f565b81548110610fbf577f4e487b7100000000000000000000000000000000000000000000000000000000600052603260045260246000fd5b906000526020600020906005020160020180548060200260200160405190810160405280929190818152602001828054801561105057602002820191906000526020600020905b8160009054906101000a900473ffffffffffffffffffffffffffffffffffffffff1673ffffffffffffffffffffffffffffffffffffffff1681526020019060010190808311611006575b50505050509050919050565b6003818154811061106c57600080fd5b9060005260206000200160009150905080600001805461108b90612741565b80601f01602080910402602001604051908101604052809291908181526020018280546110b790612741565b80156111045780601f106110d957610100808354040283529160200191611104565b820191906000526020600020905b8154815290600101906020018083116110e757829003601f168201915b5050505050905081565b60608060005b6002805490508110156113f5573373ffffffffffffffffffffffffffffffffffffffff1660028281548110611172577f4e487b7100000000000000000000000000000000000000000000000000000000600052603260045260246000fd5b906000526020600020906005020160000160009054906101000a900473ffffffffffffffffffffffffffffffffffffffff1673ffffffffffffffffffffffffffffffffffffffff1614156113e257600281815481106111fa577f4e487b7100000000000000000000000000000000000000000000000000000000600052603260045260246000fd5b90600052602060002090600502016040518060a00160405290816000820160009054906101000a900473ffffffffffffffffffffffffffffffffffffffff1673ffffffffffffffffffffffffffffffffffffffff1673ffffffffffffffffffffffffffffffffffffffff16815260200160018201805461127990612741565b80601f01602080910402602001604051908101604052809291908181526020018280546112a590612741565b80156112f25780601f106112c7576101008083540402835291602001916112f2565b820191906000526020600020905b8154815290600101906020018083116112d557829003601f168201915b505050505081526020016002820180548060200260200160405190810160405280929190818152602001828054801561138057602002820191906000526020600020905b8160009054906101000a900473ffffffffffffffffffffffffffffffffffffffff1673ffffffffffffffffffffffffffffffffffffffff1681526020019060010190808311611336575b50505050508152602001600382015481526020016004820154815250508282815181106113d6577f4e487b7100000000000000000000000000000000000000000000000000000000600052603260045260246000fd5b60200260200101819052505b80806113ed906127a4565b915050611114565b508091505090565b60006004600084815260200190815260200160002060008373ffffffffffffffffffffffffffffffffffffffff1673ffffffffffffffffffffffffffffffffffffffff16815260200190815260200160002054905092915050565b60006002600183611469919061268f565b815481106114a0577f4e487b7100000000000000000000000000000000000000000000000000000000600052603260045260246000fd5b9060005260206000209060050201600401549050919050565b60606002805480602002602001604051908101604052809291908181526020016000905b8282101561169957838290600052602060002090600502016040518060a00160405290816000820160009054906101000a900473ffffffffffffffffffffffffffffffffffffffff1673ffffffffffffffffffffffffffffffffffffffff1673ffffffffffffffffffffffffffffffffffffffff16815260200160018201805461156690612741565b80601f016020809104026020016040519081016040528092919081815260200182805461159290612741565b80156115df5780601f106115b4576101008083540402835291602001916115df565b820191906000526020600020905b8154815290600101906020018083116115c257829003601f168201915b505050505081526020016002820180548060200260200160405190810160405280929190818152602001828054801561166d57602002820191906000526020600020905b8160009054906101000a900473ffffffffffffffffffffffffffffffffffffffff1673ffffffffffffffffffffffffffffffffffffffff1681526020019060010190808311611623575b5050505050815260200160038201548152602001600482015481525050815260200190600101906114dd565b50505050905090565b6116aa611be1565b60026001836116b9919061268f565b815481106116f0577f4e487b7100000000000000000000000000000000000000000000000000000000600052603260045260246000fd5b90600052602060002090600502016040518060a00160405290816000820160009054906101000a900473ffffffffffffffffffffffffffffffffffffffff1673ffffffffffffffffffffffffffffffffffffffff1673ffffffffffffffffffffffffffffffffffffffff16815260200160018201805461176f90612741565b80601f016020809104026020016040519081016040528092919081815260200182805461179b90612741565b80156117e85780601f106117bd576101008083540402835291602001916117e8565b820191906000526020600020905b8154815290600101906020018083116117cb57829003601f168201915b505050505081526020016002820180548060200260200160405190810160405280929190818152602001828054801561187657602002820191906000526020600020905b8160009054906101000a900473ffffffffffffffffffffffffffffffffffffffff1673ffffffffffffffffffffffffffffffffffffffff168152602001906001019080831161182c575b50505050508152602001600382015481526020016004820154815250509050919050565b600060026001836118ab919061268f565b815481106118e2577f4e487b7100000000000000000000000000000000000000000000000000000000600052603260045260246000fd5b9060005260206000209060050201905060005b81600201805490508110156119ec573373ffffffffffffffffffffffffffffffffffffffff16826002018281548110611957577f4e487b7100000000000000000000000000000000000000000000000000000000600052603260045260246000fd5b9060005260206000200160009054906101000a900473ffffffffffffffffffffffffffffffffffffffff1673ffffffffffffffffffffffffffffffffffffffff1614156119d9576040517f08c379a00000000000000000000000000000000000000000000000000000000081526004016119d0906123a7565b60405180910390fd5b80806119e4906127a4565b9150506118f5565b5080600201339080600181540180825580915050600190039060005260206000200160009091909190916101000a81548173ffffffffffffffffffffffffffffffffffffffff021916908373ffffffffffffffffffffffffffffffffffffffff1602179055503373ffffffffffffffffffffffffffffffffffffffff16827f7c29733edbbbc7f83fc8c5fb3231ab4c21421e8da3e7bb05cddc0c2be2d0cf6560405160405180910390a35050565b6001816000016000828254019250508190555050565b600081600001549050919050565b828054611aca90612741565b90600052602060002090601f016020900481019282611aec5760008555611b33565b82601f10611b0557805160ff1916838001178555611b33565b82800160010185558215611b33579182015b82811115611b32578251825591602001919060010190611b17565b5b509050611b409190611c26565b5090565b828054828255906000526020600020908101928215611bbd579160200282015b82811115611bbc5782518260006101000a81548173ffffffffffffffffffffffffffffffffffffffff021916908373ffffffffffffffffffffffffffffffffffffffff16021790555091602001919060010190611b64565b5b509050611bca9190611c26565b5090565b6040518060200160405280606081525090565b6040518060a00160405280600073ffffffffffffffffffffffffffffffffffffffff168152602001606081526020016060815260200160008152602001600081525090565b5b80821115611c3f576000816000905550600101611c27565b5090565b6000611c56611c5184612494565b61246f565b905082815260208101848484011115611c6e57600080fd5b611c798482856126ff565b509392505050565b600081359050611c90816129f9565b92915050565b600082601f830112611ca757600080fd5b8135611cb7848260208601611c43565b91505092915050565b600081359050611ccf81612a10565b92915050565b600060208284031215611ce757600080fd5b600082013567ffffffffffffffff811115611d0157600080fd5b611d0d84828501611c96565b91505092915050565b600060208284031215611d2857600080fd5b6000611d3684828501611cc0565b91505092915050565b60008060408385031215611d5257600080fd5b6000611d6085828601611cc0565b9250506020611d7185828601611c81565b9150509250929050565b600080600060608486031215611d9057600080fd5b6000611d9e86828701611cc0565b9350506020611daf86828701611cc0565b925050604084013567ffffffffffffffff811115611dcc57600080fd5b611dd886828701611c96565b9150509250925092565b6000611dee8383611e22565b60208301905092915050565b6000611e068383612107565b905092915050565b6000611e1a838361215b565b905092915050565b611e2b816126c3565b82525050565b611e3a816126c3565b82525050565b6000611e4b826124f5565b611e558185612548565b9350611e60836124c5565b8060005b83811015611e91578151611e788882611de2565b9750611e8383612521565b925050600181019050611e64565b5085935050505092915050565b6000611ea9826124f5565b611eb38185612559565b9350611ebe836124c5565b8060005b83811015611eef578151611ed68882611de2565b9750611ee183612521565b925050600181019050611ec2565b5085935050505092915050565b6000611f0782612500565b611f11818561256a565b935083602082028501611f23856124d5565b8060005b85811015611f5f5784840389528151611f408582611dfa565b9450611f4b8361252e565b925060208a01995050600181019050611f27565b50829750879550505050505092915050565b6000611f7c8261250b565b611f86818561257b565b935083602082028501611f98856124e5565b8060005b85811015611fd45784840389528151611fb58582611e0e565b9450611fc08361253b565b925060208a01995050600181019050611f9c565b50829750879550505050505092915050565b6000611ff182612516565b611ffb818561258c565b935061200b81856020860161270e565b612014816128a9565b840191505092915050565b600061202a82612516565b612034818561259d565b935061204481856020860161270e565b61204d816128a9565b840191505092915050565b600061206560228361259d565b9150612070826128ba565b604082019050919050565b6000612088602f8361259d565b915061209382612909565b604082019050919050565b60006120ab60298361259d565b91506120b682612958565b604082019050919050565b60006120ce601a8361259d565b91506120d9826129a7565b602082019050919050565b60006120f160168361259d565b91506120fc826129d0565b602082019050919050565b600060208301600083015184820360008601526121248282611fe6565b9150508091505092915050565b6000602083016000830151848203600086015261214e8282611fe6565b9150508091505092915050565b600060a0830160008301516121736000860182611e22565b506020830151848203602086015261218b8282611fe6565b915050604083015184820360408601526121a58282611e40565b91505060608301516121ba6060860182612255565b5060808301516121cd6080860182612255565b508091505092915050565b600060a0830160008301516121f06000860182611e22565b50602083015184820360208601526122088282611fe6565b915050604083015184820360408601526122228282611e40565b91505060608301516122376060860182612255565b50608083015161224a6080860182612255565b508091505092915050565b61225e816126f5565b82525050565b61226d816126f5565b82525050565b60006080820190506122886000830187611e31565b818103602083015261229a818661201f565b90506122a96040830185612264565b6122b66060830184612264565b95945050505050565b600060208201905081810360008301526122d98184611e9e565b905092915050565b600060208201905081810360008301526122fb8184611efc565b905092915050565b6000602082019050818103600083015261231d8184611f71565b905092915050565b6000602082019050818103600083015261233f818461201f565b905092915050565b6000602082019050818103600083015261236081612058565b9050919050565b600060208201905081810360008301526123808161207b565b9050919050565b600060208201905081810360008301526123a08161209e565b9050919050565b600060208201905081810360008301526123c0816120c1565b9050919050565b600060208201905081810360008301526123e0816120e4565b9050919050565b600060208201905081810360008301526124018184612131565b905092915050565b6000602082019050818103600083015261242381846121d8565b905092915050565b60006020820190506124406000830184612264565b92915050565b600060408201905061245b6000830185612264565b6124686020830184612264565b9392505050565b600061247961248a565b90506124858282612773565b919050565b6000604051905090565b600067ffffffffffffffff8211156124af576124ae61287a565b5b6124b8826128a9565b9050602081019050919050565b6000819050602082019050919050565b6000819050602082019050919050565b6000819050602082019050919050565b600081519050919050565b600081519050919050565b600081519050919050565b600081519050919050565b6000602082019050919050565b6000602082019050919050565b6000602082019050919050565b600082825260208201905092915050565b600082825260208201905092915050565b600082825260208201905092915050565b600082825260208201905092915050565b600082825260208201905092915050565b600082825260208201905092915050565b60006125b9826126f5565b91506125c4836126f5565b9250827fffffffffffffffffffffffffffffffffffffffffffffffffffffffffffffffff038211156125f9576125f86127ed565b5b828201905092915050565b600061260f826126f5565b915061261a836126f5565b92508261262a5761262961281c565b5b828204905092915050565b6000612640826126f5565b915061264b836126f5565b9250817fffffffffffffffffffffffffffffffffffffffffffffffffffffffffffffffff0483118215151615612684576126836127ed565b5b828202905092915050565b600061269a826126f5565b91506126a5836126f5565b9250828210156126b8576126b76127ed565b5b828203905092915050565b60006126ce826126d5565b9050919050565b600073ffffffffffffffffffffffffffffffffffffffff82169050919050565b6000819050919050565b82818337600083830152505050565b60005b8381101561272c578082015181840152602081019050612711565b8381111561273b576000848401525b50505050565b6000600282049050600182168061275957607f821691505b6020821081141561276d5761276c61284b565b5b50919050565b61277c826128a9565b810181811067ffffffffffffffff8211171561279b5761279a61287a565b5b80604052505050565b60006127af826126f5565b91507fffffffffffffffffffffffffffffffffffffffffffffffffffffffffffffffff8214156127e2576127e16127ed565b5b600182019050919050565b7f4e487b7100000000000000000000000000000000000000000000000000000000600052601160045260246000fd5b7f4e487b7100000000000000000000000000000000000000000000000000000000600052601260045260246000fd5b7f4e487b7100000000000000000000000000000000000000000000000000000000600052602260045260246000fd5b7f4e487b7100000000000000000000000000000000000000000000000000000000600052604160045260246000fd5b6000601f19601f8301169050919050565b7f436f6e747269627574696f6e206d7573742068617665206461746120706f696e60008201527f7473000000000000000000000000000000000000000000000000000000000000602082015250565b7f4e6f20636f6e747269627574696f6e732068617665206265656e206d6164652060008201527f746f20746869732070726f6a6563740000000000000000000000000000000000602082015250565b7f507572636861736520616d6f756e74206d75737420626520677265617465722060008201527f7468616e207a65726f0000000000000000000000000000000000000000000000602082015250565b7f436f6e7472696275746f7220616c726561647920657869737473000000000000600082015250565b7f50726f6a65637420646f6573206e6f7420657869737400000000000000000000600082015250565b612a02816126c3565b8114612a0d57600080fd5b50565b612a19816126f5565b8114612a2457600080fd5b5056fea264697066735822122063f0f67e44df4fc9031570f2d37537dd1e6be7a7a8ef08026c55dbe32b5d6a8064736f6c63430008040033",
  "linkReferences": {},
  "deployedLinkReferences": {}
}